{
  "contractName": "TaskeeLibrary",
  "abi": [
    {
      "constant": true,
      "inputs": [
        {
          "name": "_storageContract",
          "type": "address"
        }
      ],
      "name": "getTaskeeCount",
      "outputs": [
        {
          "name": "",
          "type": "uint256"
        }
      ],
      "payable": false,
      "stateMutability": "view",
      "type": "function"
    },
    {
      "constant": false,
      "inputs": [
        {
          "name": "_storageContract",
          "type": "address"
        },
        {
          "name": "_name",
          "type": "string"
        },
        {
          "name": "_email",
          "type": "string"
        }
      ],
      "name": "addTaskee",
      "outputs": [],
      "payable": false,
      "stateMutability": "nonpayable",
      "type": "function"
    },
    {
      "constant": true,
      "inputs": [
        {
          "name": "_storageContract",
          "type": "address"
        }
      ],
      "name": "getTaskee",
      "outputs": [
        {
          "name": "",
          "type": "string"
        },
        {
          "name": "",
          "type": "string"
        }
      ],
      "payable": false,
      "stateMutability": "view",
      "type": "function"
    }
  ],
  "bytecode": "0x610bab610030600b82828239805160001a6073146000811461002057610022565bfe5b5030600052607381538281f300730000000000000000000000000000000000000000301460806040526004361061006e576000357c0100000000000000000000000000000000000000000000000000000000900463ffffffff1680631e5756d714610073578063985a22171461018e578063f8b79bb51461025d575b600080fd5b6100a7600480360381019080803573ffffffffffffffffffffffffffffffffffffffff1690602001909291905050506102a7565b604051808060200180602001838103835285818151815260200191508051906020019080838360005b838110156100eb5780820151818401526020810190506100d0565b50505050905090810190601f1680156101185780820380516001836020036101000a031916815260200191505b50838103825284818151815260200191508051906020019080838360005b83811015610151578082015181840152602081019050610136565b50505050905090810190601f16801561017e5780820380516001836020036101000a031916815260200191505b5094505050505060405180910390f35b81801561019a57600080fd5b5061025b600480360381019080803573ffffffffffffffffffffffffffffffffffffffff169060200190929190803590602001908201803590602001908080601f0160208091040260200160405190810160405280939291908181526020018383808284378201915050505050509192919290803590602001908201803590602001908080601f01602080910402602001604051908101604052809392919081815260200183838082843782019150505050505091929192905050506105b3565b005b610291600480360381019080803573ffffffffffffffffffffffffffffffffffffffff169060200190929190505050610a8f565b6040518082815260200191505060405180910390f35b6060808273ffffffffffffffffffffffffffffffffffffffff1663a209a29c3360405180807f5461736b65655f4e616d65000000000000000000000000000000000000000000815250600b018273ffffffffffffffffffffffffffffffffffffffff1673ffffffffffffffffffffffffffffffffffffffff166c0100000000000000000000000002815260140191505060405180910390206040518263ffffffff167c0100000000000000000000000000000000000000000000000000000000028152600401808260001916600019168152602001915050600060405180830381600087803b15801561039957600080fd5b505af11580156103ad573d6000803e3d6000fd5b505050506040513d6000823e3d601f19601f8201168201806040525060208110156103d757600080fd5b8101908080516401000000008111156103ef57600080fd5b8281019050602081018481111561040557600080fd5b815185600182028301116401000000008211171561042257600080fd5b50509291905050508373ffffffffffffffffffffffffffffffffffffffff1663a209a29c3360405180807f5461736b65655f456d61696c0000000000000000000000000000000000000000815250600c018273ffffffffffffffffffffffffffffffffffffffff1673ffffffffffffffffffffffffffffffffffffffff166c0100000000000000000000000002815260140191505060405180910390206040518263ffffffff167c0100000000000000000000000000000000000000000000000000000000028152600401808260001916600019168152602001915050600060405180830381600087803b15801561051957600080fd5b505af115801561052d573d6000803e3d6000fd5b505050506040513d6000823e3d601f19601f82011682018060405250602081101561055757600080fd5b81019080805164010000000081111561056f57600080fd5b8281019050602081018481111561058557600080fd5b81518560018202830111640100000000821117156105a257600080fd5b505092919050505091509150915091565b60006105be84610a8f565b90508373ffffffffffffffffffffffffffffffffffffffff16633562fd203360405180807f5461736b65655f496400000000000000000000000000000000000000000000008152506009018273ffffffffffffffffffffffffffffffffffffffff1673ffffffffffffffffffffffffffffffffffffffff166c010000000000000000000000000281526014019150506040518091039020600184016040518363ffffffff167c010000000000000000000000000000000000000000000000000000000002815260040180836000191660001916815260200182815260200192505050600060405180830381600087803b1580156106ba57600080fd5b505af11580156106ce573d6000803e3d6000fd5b505050508373ffffffffffffffffffffffffffffffffffffffff1663f58660663360405180807f5461736b65655f4e616d65000000000000000000000000000000000000000000815250600b018273ffffffffffffffffffffffffffffffffffffffff1673ffffffffffffffffffffffffffffffffffffffff166c010000000000000000000000000281526014019150506040518091039020856040518363ffffffff167c010000000000000000000000000000000000000000000000000000000002815260040180836000191660001916815260200180602001828103825283818151815260200191508051906020019080838360005b838110156107e15780820151818401526020810190506107c6565b50505050905090810190601f16801561080e5780820380516001836020036101000a031916815260200191505b509350505050600060405180830381600087803b15801561082e57600080fd5b505af1158015610842573d6000803e3d6000fd5b505050508373ffffffffffffffffffffffffffffffffffffffff1663f58660663360405180807f5461736b65655f456d61696c0000000000000000000000000000000000000000815250600c018273ffffffffffffffffffffffffffffffffffffffff1673ffffffffffffffffffffffffffffffffffffffff166c010000000000000000000000000281526014019150506040518091039020846040518363ffffffff167c010000000000000000000000000000000000000000000000000000000002815260040180836000191660001916815260200180602001828103825283818151815260200191508051906020019080838360005b8381101561095557808201518184015260208101905061093a565b50505050905090810190601f1680156109825780820380516001836020036101000a031916815260200191505b509350505050600060405180830381600087803b1580156109a257600080fd5b505af11580156109b6573d6000803e3d6000fd5b505050508373ffffffffffffffffffffffffffffffffffffffff16633562fd2060405180807f5461736b6565436f756e74000000000000000000000000000000000000000000815250600b0190506040518091039020600184016040518363ffffffff167c010000000000000000000000000000000000000000000000000000000002815260040180836000191660001916815260200182815260200192505050600060405180830381600087803b158015610a7157600080fd5b505af1158015610a85573d6000803e3d6000fd5b5050505050505050565b60008173ffffffffffffffffffffffffffffffffffffffff1663bdc963d860405180807f5461736b6565436f756e74000000000000000000000000000000000000000000815250600b01905060405180910390206040518263ffffffff167c0100000000000000000000000000000000000000000000000000000000028152600401808260001916600019168152602001915050602060405180830381600087803b158015610b3d57600080fd5b505af1158015610b51573d6000803e3d6000fd5b505050506040513d6020811015610b6757600080fd5b810190808051906020019092919050505090509190505600a165627a7a72305820f91ea65b1f48f4abc4245d1668e828c4e5ec3a6834b69193046f3edc3dc7bad80029",
  "source": "\r\npragma solidity ^0.4.23;\r\n\r\nimport \"./EternalStorage.sol\";\r\n\r\nlibrary TaskeeLibrary {\r\n\r\n  function getTaskeeCount(address _storageContract) public view returns(uint256)\r\n  {\r\n    return EternalStorage(_storageContract).getUIntValue(keccak256(\"TaskeeCount\"));\r\n  }\r\n\r\n  function addTaskee(address _storageContract, string _name, string _email) public\r\n  {\r\n    uint256 taskeeCount = getTaskeeCount(_storageContract);\r\n    EternalStorage(_storageContract).setUIntValue(keccak256(\"Taskee_Id\",msg.sender), taskeeCount + 1);\r\n    EternalStorage(_storageContract).setStringValue(keccak256(\"Taskee_Name\", msg.sender), _name);\r\n    EternalStorage(_storageContract).setStringValue(keccak256(\"Taskee_Email\", msg.sender), _email);\r\n    EternalStorage(_storageContract).setUIntValue(keccak256(\"TaskeeCount\"), taskeeCount + 1);\r\n  }\r\n\r\n  function getTaskee(address _storageContract) public view returns(string,string) {\r\n    return (EternalStorage(_storageContract).getStringValue(keccak256(\"Taskee_Name\", msg.sender)),\r\n            EternalStorage(_storageContract).getStringValue(keccak256(\"Taskee_Email\", msg.sender)));\r\n  }\r\n}\r\n",
  "sourcePath": "/home/ubuntu/tasko/contracts/TaskeeLibrary.sol",
  "compiler": {
    "name": "solc",
    "version": "0.4.23+commit.124ca40d.Emscripten.clang"
  },
  "schemaVersion": "2.0.0",
  "updatedAt": "2018-07-04T16:09:00.949Z"
}